:020000040000FA
:100000000C9462000C948A000C948A000C948A0070
:100010000C948A000C948A000C948A000C948A0038
:100020000C948A000C948A000C948A000C948A0028
:100030000C948A000C948A000C948A000C948A0018
:100040000C9483040C948A000C9451040C942B049B
:100050000C948A000C948A000C948A000C948A00F8
:100060000C948A000C948A000000000024002700F1
:100070002A0000000000250028002B0000000000DE
:1000800023002600290004040404040404040202DA
:100090000202020203030303030301020408102007
:1000A0004080010204081020010204081020000012
:1000B0000008000201000003040700000000000027
:1000C0000000CD0411241FBECFEFD8E0DEBFCDBFAE
:1000D00011E0A0E0B1E0E8EBF3E102C005900D9281
:1000E000A234B107D9F722E0A2E4B1E001C01D9229
:1000F000AD33B207E1F710E0C2E6D0E004C02197CB
:10010000FE010E94D409C136D107C9F70E94170524
:100110000C94DA090C940000AF92BF92CF92DF9258
:10012000EF92FF920F931F93CF93DF936C017B01AC
:100130008B01040F151FEB015E01AE18BF08C0173D
:10014000D10759F06991D601ED91FC910190F081B0
:10015000E02DC6010995892B79F7C501DF91CF9173
:100160001F910F91FF90EF90DF90CF90BF90AF90D5
:100170000895FC01538D448D252F30E0842F90E0AD
:10018000821B930B541710F0CF9608950197089592
:10019000FC01918D828D981761F0A28DAE0FBF2F5B
:1001A000B11D5D968C91928D9F5F9F73928F90E0B1
:1001B00008958FEF9FEF0895FC01918D828D981720
:1001C00031F0828DE80FF11D858D90E008958FEF5D
:1001D0009FEF0895FC01918D228D892F90E0805C26
:1001E0009F4F821B91098F739927089588E891E0AA
:1001F0000E94EA0021E0892B09F420E0822F089573
:1002000080E090E0892B29F00E94F60081110C9487
:1002100000000895FC01A48DA80FB92FB11DA35AA9
:10022000BF4F2C91848D90E001968F739927848F16
:10023000A689B7892C93A089B1898C918370806439
:100240008C93938D848D981306C00288F389E02DDA
:1002500080818F7D80830895EF92FF920F931F938B
:10026000CF93DF93EC0181E0888F9B8D8C8D981369
:100270001AC0E889F989808185FF15C09FB7F89475
:10028000EE89FF896083E889F989808183708064C1
:1002900080839FBF81E090E0DF91CF911F910F910C
:1002A000FF90EF900895F62E0B8D10E00F5F1F4F1B
:1002B0000F731127E02E8C8D8E110CC00FB607FC2A
:1002C000FACFE889F989808185FFF5CFCE010E94B8
:1002D0000A01F1CFEB8DEC0FFD2FF11DE35AFF4F1B
:1002E000F0829FB7F8940B8FEA89FB898081806246
:1002F000CFCFCF93DF93EC01888D8823B9F0AA8903
:10030000BB89E889F9898C9185FD03C0808186FDD0
:100310000DC00FB607FCF7CF8C9185FFF2CF80811F
:1003200085FFEDCFCE010E940A01E9CFDF91CF9189
:100330000895833081F028F4813099F08230A9F05B
:1003400008958730A9F08830C9F08430B1F48091E5
:1003500080008F7D03C0809180008F778093800024
:10036000089584B58F7784BD089584B58F7DFBCFC4
:100370008091B0008F778093B00008958091B00095
:100380008F7DF9CFCF93DF93282F30E0F901E2552D
:10039000FF4F8491F901E656FF4FD491F901EA57D6
:1003A000FF4FC491CC23A1F081110E949901EC2F41
:1003B000F0E0EE0FFF1FE458FF4FA591B491EC91D0
:1003C000ED2381E090E009F480E0DF91CF91089582
:1003D00080E090E0FACF1F93CF93DF93282F30E097
:1003E000F901E255FF4F8491F901E656FF4FD49190
:1003F000F901EA57FF4FC491CC23A9F0162F8111C0
:100400000E949901EC2FF0E0EE0FFF1FEE58FF4F16
:10041000A591B4918FB7F894EC91111108C0D095C3
:10042000DE23DC938FBFDF91CF911F910895DE2BE8
:10043000F8CFCF93DF9390E0FC01E656FF4F249175
:100440008A579F4FFC0184918823D1F090E0880F58
:10045000991FFC01E859FF4FA591B491FC01EE589A
:10046000FF4FC591D491623071F49FB7F8943C91DD
:10047000822F809583238C93E8812E2B28839FBF26
:10048000DF91CF9108958FB7F894EC912E2B2C9398
:100490008FBFF6CF089590E080E00895CF93DF936B
:1004A000EC0160E08E810E94EB0161E08E810E9490
:1004B000EB0160E08E810E94EB018BE891E00197F7
:1004C000F1F7DF91CF910895CF92DF92EF92FF92F3
:1004D0000F931F93CF93DF936C017C0187E0E80EAD
:1004E000F11CD0E0C0E0062F10E0B8010C2E02C0D5
:1004F000759567950A94E2F76170F70181917F0124
:100500000E94EB012196C430D10579F7C601DF9135
:10051000CF911F910F91FF90EF90DF90CF900C94AF
:100520004E02CF92DF92EF92FF920F931F93CF93E1
:10053000DF93EC01F62E642F8C810E94EB018D81FC
:100540008F3F19F060E00E94EB010F2D10E08F85C6
:1005500084FF25C06E0187E0C80ED11CF12CE12C70
:10056000B8010E2C02C0759567950A94E2F7617088
:10057000F60181916F010E94EB01FFEFEF1AFF0A74
:1005800088E0E816F10461F7CE01DF91CF911F9169
:100590000F91FF90EF90DF90CF900C944E02B80136
:1005A00084E0759567958A95E1F7CE010E94640213
:1005B0006F2DCE01DF91CF911F910F91FF90EF90A2
:1005C000DF90CF900C94640240E0682F85E292E0C7
:1005D0000C949102CF93DF93823029F490913402EE
:1005E000986090933402809338021092390280E42C
:1005F00080933A0280E180933B0280E580933C0245
:1006000061E0809129020E94190280912A028F3FA5
:1006100019F061E00E94190261E080912B020E94B2
:100620001902C5E2D2E09E01255232408091340287
:1006300084FD0BC084E090E021962817390744F42C
:1006400061E08E810E941902EECF88E090E0F4CF45
:100650008BE39DE00197F1F760E0809129020E9411
:10066000EB0160E080912B020E94EB0180912A0255
:100670008F3F19F060E00E94EB018091340284FD0D
:1006800039C063E085E292E00E946402CBE4D6E4E4
:10069000CE010197F1F763E085E292E00E946402E7
:1006A0002197F1F763E085E292E00E94640283E51E
:1006B00092E00197F1F762E085E292E00E94640225
:1006C0008091340280620E94E40284E080933502CB
:1006D0008CE00E94E40281E00E94E4028BE39FE14F
:1006E0000197F1F782E08093360286E0DF91CF91A7
:1006F0000C94E40280620E94E4028BE496E4019789
:10070000F1F78091340280620E94E40283E592E076
:100710000197F1F78091340280620E94E402D0CF09
:10072000E0913802E23048F4E150F0E0EB5DFD4F3B
:100730009489890F80680C94E402E1E0F6CF41E0EF
:100740000E94910281E090E00895FB010190002059
:10075000E9F73197AF01461B570BDC01ED91FC9196
:100760000280F381E02D09948F929F92AF92BF9205
:10077000EF92FF920F931F93CF93DF93CDB7DEB726
:10078000A1970FB6F894DEBF0FBECDBF7C01FA0172
:10079000CB0119A2223008F42AE08E010F5D1F4F11
:1007A000822E912CB12CA12CBF01A50194010E9495
:1007B000B209F901CA016A300CF5605DD8016E9387
:1007C0008D01232B242B252B79F790E080E01097C7
:1007D00021F0BD01C7010E94A503A1960FB6F894B0
:1007E000DEBF0FBECDBFDF91CF911F910F91FF9064
:1007F000EF90BF90AF909F908F900895695CDECF8F
:10080000CF92DF92EF92FF92AB01BC0177FF1AC04B
:100810006A017C0141E06DE285E292E00E94910272
:1008200044275527BA014C195D096E097F092AE052
:1008300085E292E00E94B4030196FF90EF90DF9072
:10084000CF9008952AE085E292E0FF90EF90DF904C
:10085000CF900C94B4031F920F920FB60F921124F5
:100860002F933F934F935F936F937F938F939F93B8
:10087000AF93BF93EF93FF9388E891E00E940A0142
:10088000FF91EF91BF91AF919F918F917F916F9168
:100890005F914F913F912F910F900FBE0F901F903E
:1008A00018951F920F920FB60F9211242F938F93CA
:1008B0009F93EF93FF93E0919801F09199018081CC
:1008C000E0919E01F0919F0182FD1BC0908180917B
:1008D000A1018F5F8F732091A201821741F0E091F7
:1008E000A101F0E0E857FE4F958F8093A101FF91A1
:1008F000EF919F918F912F910F900FBE0F901F90AE
:1009000018958081F4CF1F920F920FB60F92112489
:100910002F933F938F939F93AF93BF9380916D01DC
:1009200090916E01A0916F01B091700130914601DC
:1009300023E0230F2D3758F50196A11DB11D2093FB
:10094000460180936D0190936E01A0936F01B09367
:1009500070018091420190914301A0914401B091B6
:1009600045010196A11DB11D809342019093430161
:10097000A0934401B0934501BF91AF919F918F9196
:100980003F912F910F900FBE0F901F90189526E862
:10099000230F0296A11DB11DD2CFE8E8F1E013822A
:1009A000128288EE93E0A0E0B0E084839583A68372
:1009B000B78388E091E09183808385EC90E0958710
:1009C000848784EC90E09787868780EC90E0918B19
:1009D000808B81EC90E0938B828B82EC90E0958B06
:1009E000848B86EC90E0978B868B118E128E138E03
:1009F000148EE5E2F2E0138212828AE191E09183A3
:100A000080838CE084838FEF85838BE086838AE00C
:100A1000878389E0808788E0818787E082871386E3
:100A2000148615861686178681E00C94EA0278945F
:100A300084B5826084BD84B5816084BD85B58260E3
:100A400085BD85B5816085BD80916E008160809394
:100A50006E001092810080918100826080938100FD
:100A6000809181008160809381008091800081600D
:100A7000809380008091B10084608093B100809168
:100A8000B00081608093B00080917A008460809390
:100A90007A0080917A00826080937A0080917A0057
:100AA000816080937A0080917A00806880937A00D8
:100AB0001092C10082E00E94EA0262E271E085E2E7
:100AC00092E00E94A503E0919801F091990182E0E3
:100AD0008083E0919401F09195011082E09196015C
:100AE000F09197018FEC80831092A001E0919C011E
:100AF000F0919D0186E08083E0919A01F0919B0145
:100B0000808180618083E0919A01F0919B018081D6
:100B100088608083E0919A01F0919B0180818068D8
:100B20008083E0919A01F0919B0180818F7D808389
:100B300062E082E00E94190262E083E00E941902F2
:100B400062E084E00E941902BB24B39400E010E04C
:100B5000AA24A394809149018823E9F02FB7F8943F
:100B600080916D0190916E01A0916F01B091700123
:100B70002FBF40917101509172016091730170918A
:100B80007401841B950BA60BB70BC397A105B10588
:100B900010F01092490180914A018823E9F02FB7A3
:100BA000F89480916D0190916E01A0916F01B091C8
:100BB00070012FBF409175015091760160917701CE
:100BC00070917801841B950BA60BB70BC397A105F9
:100BD000B10510F010924A0150E0E52E51E0F52EDB
:100BE0006701D0E0C0E0F601819091906F017C2E0A
:100BF00073947394872D0E94C20188169906C9F0D8
:100C0000872D0E94C201892BA1F4FE01E75BFE4FF4
:100C1000808181110EC0FE01EE0FFF1FE258FE4FD2
:100C200080819181019691838083FE01E95BFE4F73
:100C300010822196C330D105B1F6D0E0C0E0F701B3
:100C4000C190D1907F019C2E93949394892D0E9402
:100C5000C201C816D90649F1892D0E94C201019727
:100C600021F5DE01A75BBE4F8C9181111EC0FE01F4
:100C7000E95BFE4F8081811118C0BC92B0822FB712
:100C8000F89480916D0190916E01A0916F01B091E7
:100C900070012FBFFE01EE0FFF1FEE0FFF1FEF5879
:100CA000FE4F80839183A283B383892D0E94C2016A
:100CB000F701329791838083219709F003C1C09196
:100CC0006B01D0916C0184E00E94C201FE01EE0F25
:100CD000FF1FE55BFE4F918380832196C031D105D4
:100CE0000CF0F3C0D0936C01C0936B01CBE4D1E066
:100CF000C12CD12C760169917991072E000C880BBB
:100D0000990B0E948B089B01AC01C701B6010E94A0
:100D1000E9076B017C01F1E0CB36DF0761F720E0EA
:100D200030E040E85DE30E944009609384017093E5
:100D3000850180938601909387012DEC3CEC4CE477
:100D40005EE30E943B0987FD19C080917D018111FE
:100D500015C0A0927D012FB7F89480916D019091FC
:100D60006E01A0916F01B09170012FBF80937D0142
:100D700090937E01A0937F01B09380012DEC3CEC19
:100D80004CE45EE36091840170918501809186015D
:100D9000909187010E94550887FF2BC080917D01AB
:100DA000882339F12FB7F89480916D0190916E01ED
:100DB000A0916F01B09170012FBF40917D015091C2
:100DC0007E0160917F0170918001841B950BA60BC1
:100DD000B70B84369105A105B10558F410927D0139
:100DE0008091820190918301019690938301809379
:100DF000820180E00E94900360917E0170917F01EA
:100E0000072E000C880B990B0E94000486E00E94BC
:100E100090036091800170918101072E000C880B76
:100E2000990B0E9400048CE00E9490036091820163
:100E300070918301072E000C880B990B0E9400040F
:100E4000C0908401D0908501E0908601F0908701E8
:100E5000A7019601C701B6010E94AD0963E371E0E5
:100E600081111AC026013701E89477F82FEF3FEF80
:100E70004FE75FE7C301B2010E94AD0981112AC0AB
:100E80002FEF3FEF4FE75FE7C301B2010E94550824
:100E9000181604F567E371E088E891E00E94A50365
:100EA0006FE371E088E891E00E94A5030115110548
:100EB00009F450CE0E94F600882309F44BCE0E941C
:100EC000000048CEC1E0D0E0BACE10926C01109282
:100ED0006B010CCF2FEF3FEF4FE75FE4C701B60187
:100EE0000E943B0918161CF46BE371E0D5CF2FEF7D
:100EF0003FEF4FE75FECC701B6010E94550887FD41
:100F0000F3CF20E030E0A901C701B6010E945508E7
:100F100087FF09C06DE288E891E00E942C01F7FA92
:100F2000F094F7F8F0942AE037ED43EA5BE3C70169
:100F3000B6010E94E9072B013C010E945A086B018F
:100F40007C010E9489089B01AC01C301B2010E948F
:100F5000E8072B013C012AE0B701A60188E891E0EF
:100F60000E94B4036EE288E891E00E942C0120E028
:100F700030E040E251E4C301B2010E9440092B017C
:100F80003C010E945A086B01F12CE12C2AE0B701C8
:100F9000A60188E891E00E94B403C701B6010E944F
:100FA00089089B01AC01C301B2010E94E80720E05F
:100FB00030E040E251E40E9440090E945A08AB012F
:100FC00070E060E02AE088E891E00E94B40368CF16
:100FD0005058BB27AA270E9400080C9401090E94C0
:100FE000F30838F00E94FA0820F039F49F3F19F412
:100FF00026F40C94F0080EF4E095E7FB0C94EA0854
:10100000E92F0E94120958F3BA1762077307840781
:10101000950720F079F4A6F50C9434090EF4E095C8
:101020000B2EBA2FA02D0B01B90190010C01CA01A2
:10103000A0011124FF27591B99F0593F50F4503E4D
:1010400068F11A16F040A22F232F342F4427585F3F
:10105000F3CF469537952795A795F0405395C9F757
:101060007EF41F16BA0B620B730B840BBAF091500F
:10107000A1F0FF0FBB1F661F771F881FC2F70EC0AE
:10108000BA0F621F731F841F48F487957795679581
:10109000B795F7959E3F08F0B0CF9395880F08F06D
:1010A0009927EE0F9795879508950E94C60808F432
:1010B00081E008950E941A0988F09F5798F0B92F8F
:1010C0009927B751B0F0E1F0660F771F881F991F7D
:1010D0001AF0BA95C9F714C0B13091F00E943409E2
:1010E000B1E008950C943409672F782F8827B85FF2
:1010F00039F0B93FCCF3869577956795B395D9F7D5
:101100003EF490958095709561957F4F8F4F9F4FDE
:101110000895E89409C097FB3EF4909580957095EA
:1011200061957F4F8F4F9F4F9923A9F0F92F96E933
:10113000BB279395F695879577956795B795F111A8
:10114000F8CFFAF4BB0F11F460FF1BC06F5F7F4F45
:101150008F4F9F4F16C0882311F096E911C0772357
:1011600021F09EE8872F762F05C0662371F096E860
:10117000862F70E060E02AF09A95660F771F881F2F
:10118000DAF7880F9695879597F90895990F0008D3
:10119000550FAA0BE0E8FEEF16161706E807F90749
:1011A000C0F012161306E407F50798F0621B730BE4
:1011B000840B950B39F40A2661F0232B242B252B65
:1011C00021F408950A2609F4A140A6958FEF811D08
:1011D000811D089597F99F6780E870E060E00895A9
:1011E0009FEF80EC089500240A941616170618063F
:1011F0000906089500240A9412161306140605061B
:101200000895092E0394000C11F4882352F0BB0FAB
:1012100040F4BF2B11F460FF04C06F5F7F4F8F4F0E
:101220009F4F089557FD9058440F551F59F05F3F49
:1012300071F04795880F97FB991F61F09F3F79F0F8
:1012400087950895121613061406551FF2CF46957A
:10125000F1DF08C0161617061806991FF1CF8695FC
:101260007105610508940895E894BB2766277727E0
:10127000CB0197F908950E94C60808F48FEF0895EE
:101280000E9453090C9401090E94F30838F00E944F
:10129000FA0820F0952311F00C94EA080C94F00859
:1012A00011240C9435090E94120970F3959FC1F323
:1012B000950F50E0551F629FF001729FBB27F00D04
:1012C000B11D639FAA27F00DB11DAA1F649F662759
:1012D000B00DA11D661F829F2227B00DA11D621FA8
:1012E000739FB00DA11D621F839FA00D611D221F62
:1012F000749F3327A00D611D231F849F600D211D46
:10130000822F762F6A2F11249F5750409AF0F1F0C8
:1013100088234AF0EE0FFF1FBB1F661F771F881F31
:1013200091505040A9F79E3F510580F00C94EA0877
:101330000C9435095F3FE4F3983ED4F38695779596
:101340006795B795F795E7959F5FC1F7FE2B880FD7
:10135000911D9695879597F908950E94C608880B68
:10136000990B0895A1E21A2EAA1BBB1BFD010DC00B
:10137000AA1FBB1FEE1FFF1FA217B307E407F50745
:1013800020F0A21BB30BE40BF50B661F771F881F21
:10139000991F1A9469F760957095809590959B01B7
:1013A000AC01BD01CF010895EE0FFF1F0590F49130
:1013B000E02D0994F894FFCF010001000000000027
:1013C0002C018C00B9007901EA00C800DC000000A3
:1013D00000009F038C004B024A024C69637A6E69DD
:1013E0006B20332D6B726F746E79006E616E0069C5
:0A13F0006E66006F7666000D0A00BD
:107E0000112484B714BE81FFF0D085E080938100F7
:107E100082E08093C00088E18093C10086E0809377
:107E2000C20080E18093C4008EE0C9D0259A86E02C
:107E300020E33CEF91E0309385002093840096BBD3
:107E4000B09BFECF1D9AA8958150A9F7CC24DD24C4
:107E500088248394B5E0AB2EA1E19A2EF3E0BF2EE7
:107E6000A2D0813461F49FD0082FAFD0023811F036
:107E7000013811F484E001C083E08DD089C08234E0
:107E800011F484E103C0853419F485E0A6D080C0E4
:107E9000853579F488D0E82EFF2485D0082F10E0AE
:107EA000102F00270E291F29000F111F8ED06801E7
:107EB0006FC0863521F484E090D080E0DECF843638
:107EC00009F040C070D06FD0082F6DD080E0C81688
:107ED00080E7D80618F4F601B7BEE895C0E0D1E017
:107EE00062D089930C17E1F7F0E0CF16F0E7DF06D8
:107EF00018F0F601B7BEE89568D007B600FCFDCFD4
:107F0000A601A0E0B1E02C9130E011968C91119780
:107F100090E0982F8827822B932B1296FA010C0160
:107F200087BEE89511244E5F5F4FF1E0A038BF0790
:107F300051F7F601A7BEE89507B600FCFDCF97BE46
:107F4000E89526C08437B1F42ED02DD0F82E2BD052
:107F50003CD0F601EF2C8F010F5F1F4F84911BD097
:107F6000EA94F801C1F70894C11CD11CFA94CF0C13
:107F7000D11C0EC0853739F428D08EE10CD085E9AC
:107F80000AD08FE07ACF813511F488E018D01DD067
:107F900080E101D065CF982F8091C00085FFFCCF94
:107FA0009093C60008958091C00087FFFCCF809118
:107FB000C00084FD01C0A8958091C6000895E0E648
:107FC000F0E098E1908380830895EDDF803219F02E
:107FD00088E0F5DFFFCF84E1DECF1F93182FE3DFCA
:107FE0001150E9F7F2DF1F91089580E0E8DFEE27F6
:047FF000FF270994CA
:027FFE00040479
:00000001FF
