:020000040000FA
:100000000C9462000C948A000C948A000C948A0070
:100010000C948A000C948A000C948A000C948A0038
:100020000C948A000C948A000C948A000C948A0028
:100030000C948A000C948A000C948A000C948A0018
:100040000C94C5040C948A000C9493040C946D04D5
:100050000C948A000C948A000C948A000C948A00F8
:100060000C948A000C948A000000000024002700F1
:100070002A0000000000250028002B0000000000DE
:1000800023002600290004040404040404040202DA
:100090000202020203030303030301020408102007
:1000A0004080010204081020010204081020000012
:1000B0000008000201000003040700000000000027
:1000C00000000F0511241FBECFEFD8E0DEBFCDBF6B
:1000D00011E0A0E0B1E0ECEBFCE002C005900D9275
:1000E000AE32B107D9F721E0AEE2B1E001C01D9216
:1000F000AE3EB207E1F710E0C2E6D0E004C02197BF
:10010000FE010E945606C136D107C9F70E94590563
:100110000C945C060C940000AF92BF92CF92DF92D9
:10012000EF92FF920F931F93CF93DF936C017B01AC
:100130008B01040F151FEB015E01AE18BF08C0173D
:10014000D10759F06991D601ED91FC910190F081B0
:10015000E02DC6010995892B79F7C501DF91CF9173
:100160001F910F91FF90EF90DF90CF90BF90AF90D5
:100170000895FC01538D448D252F30E0842F90E0AD
:10018000821B930B541710F0CF9608950197089592
:10019000FC01918D828D981761F0A28DAE0FBF2F5B
:1001A000B11D5D968C91928D9F5F9F73928F90E0B1
:1001B00008958FEF9FEF0895FC01918D828D981720
:1001C00031F0828DE80FF11D858D90E008958FEF5D
:1001D0009FEF0895FC01918D228D892F90E0805C26
:1001E0009F4F821B91098F739927089589E391E0AE
:1001F0000E94EA0021E0892B09F420E0822F089573
:1002000080E090E0892B29F00E94F60081110C9487
:1002100000000895FC01A48DA80FB92FB11DA35AA9
:10022000BF4F2C91848D90E001968F739927848F16
:10023000A689B7892C93A089B1898C918370806439
:100240008C93938D848D981306C00288F389E02DDA
:1002500080818F7D80830895EF92FF920F931F938B
:10026000CF93DF93EC0181E0888F9B8D8C8D981369
:100270001AC0E889F989808185FF15C09FB7F89475
:10028000EE89FF896083E889F989808183708064C1
:1002900080839FBF81E090E0DF91CF911F910F910C
:1002A000FF90EF900895F62E0B8D10E00F5F1F4F1B
:1002B0000F731127E02E8C8D8E110CC00FB607FC2A
:1002C000FACFE889F989808185FFF5CFCE010E94B8
:1002D0000A01F1CFEB8DEC0FFD2FF11DE35AFF4F1B
:1002E000F0829FB7F8940B8FEA89FB898081806246
:1002F000CFCFCF93DF93EC01888D8823B9F0AA8903
:10030000BB89E889F9898C9185FD03C0808186FDD0
:100310000DC00FB607FCF7CF8C9185FFF2CF80811F
:1003200085FFEDCFCE010E940A01E9CFDF91CF9189
:100330000895833081F028F4813099F08230A9F05B
:1003400008958730A9F08830C9F08430B1F48091E5
:1003500080008F7D03C0809180008F778093800024
:10036000089584B58F7784BD089584B58F7DFBCFC4
:100370008091B0008F778093B00008958091B00095
:100380008F7DF9CFCF93DF93E0EBF0E08491ECE940
:10039000F0E0D491E8E8F0E0C491CC23A1F0811121
:1003A0000E949901EC2FF0E0EE0FFF1FE458FF4F81
:1003B000A591B491EC91ED2381E090E009F480E007
:1003C000DF91CF91089580E090E0FACF1F93CF9313
:1003D000DF93282F30E0F901E255FF4F8491F901B6
:1003E000E656FF4FD491F901EA57FF4FC491CC2351
:1003F000A9F0162F81110E949901EC2FF0E0EE0F69
:10040000FF1FEE58FF4FA591B4918FB7F894EC9170
:10041000111108C0D095DE23DC938FBFDF91CF91FF
:100420001F910895DE2BF8CFCF93DF9390E0FC016E
:10043000E656FF4F24918A579F4FFC0184918823F1
:10044000D1F090E0880F991FFC01E859FF4FA5916A
:10045000B491FC01EE58FF4FC591D491623071F414
:100460009FB7F8943C91822F809583238C93E881E9
:100470002E2B28839FBFDF91CF9108958FB7F894DB
:10048000EC912E2B2C938FBFF6CF3FB7F894809131
:10049000330190913401A0913501B091360126B518
:1004A000A89B05C02F3F19F00196A11DB11D3FBFAC
:1004B000BA2FA92F982F8827BC01CD01620F711D7B
:1004C000811D911D42E0660F771F881F991F4A9575
:1004D000D1F708958F929F92AF92BF92CF92DF9201
:1004E000EF92FF920E9445024B015C0182E3C82E0D
:1004F000D12CE12CF12C0E944502681979098A0956
:100500009B09683E734081059105A8F321E0C21A5A
:10051000D108E108F10888EE880E83E0981EA11C3E
:10052000B11CC114D104E104F10429F7FF90EF904C
:10053000DF90CF90BF90AF909F908F9008950895D7
:1005400090E080E008958F929F92AF92BF920F93B8
:100550001F93CF93DF93CDB7DEB7A1970FB6F89473
:10056000DEBF0FBECDBF19A2423008F44AE08E01B3
:100570000F5D1F4F842E912CB12CA12CA50194014D
:100580000E943406E62FB901CA01EA3044F5E05D65
:10059000D801EE938D01232B242B252B79F790E0A6
:1005A00080E0109769F0FD0101900020E9F7319794
:1005B000AF014A1B5B0BBD0186ED91E00E948C00F0
:1005C000A1960FB6F894DEBF0FBECDBFDF91CF91DD
:1005D0001F910F91BF90AF909F908F900895E95C0D
:1005E000D7CFCF93DF93EC0160E08E810E94E601CC
:1005F00061E08E810E94E60160E08E810E94E6014A
:100600008BE891E00197F1F7DF91CF910895CF92B8
:10061000DF92EF92FF920F931F93CF93DF936C01C2
:100620007C0187E0E80EF11CD0E0C0E0062F10E06E
:10063000B8010C2E02C0759567950A94E2F76170B7
:10064000F70181917F010E94E6012196C430D10516
:1006500079F7C601DF91CF911F910F91FF90EF9035
:10066000DF90CF900C94F102CF92DF92EF92FF9245
:100670000F931F93CF93DF93EC01F62E642F8C81A1
:100680000E94E6018D818F3F19F060E00E94E60133
:100690000F2D10E08F8584FF25C06E0187E0C80E06
:1006A000D11CF12CE12CB8010E2C02C07595679578
:1006B0000A94E2F76170F60181916F010E94E601F0
:1006C000FFEFEF1AFF0A88E0E816F10461F7CE01A8
:1006D000DF91CF911F910F91FF90EF90DF90CF901E
:1006E0000C94F102B80184E0759567958A95E1F75D
:1006F000CE010E9407036F2DCE01DF91CF911F9194
:100700000F91FF90EF90DF90CF900C94070340E0A3
:10071000682F86ED91E00C943403CF93DF93823001
:1007200029F49091E50198609093E5018093E901A7
:100730001092EA0180E48093EB0180E18093EC0168
:1007400080E58093ED0161E08091DA010E9414025E
:100750008091DB018F3F19F061E00E94140261E09B
:100760008091DC010E941402C6EDD1E09E01265D5D
:1007700031408091E50184FD0BC084E090E021963A
:100780002817390744F461E08E810E941402EECFED
:1007900088E090E0F4CF8BE39DE00197F1F760E013
:1007A0008091DA010E94E60160E08091DC010E9404
:1007B000E6018091DB018F3F19F060E00E94E601C5
:1007C0008091E50184FD39C063E086ED91E00E94EF
:1007D0000703CBE4D6E4CE010197F1F763E086EDA1
:1007E00091E00E9407032197F1F763E086ED91E025
:1007F0000E94070383E592E00197F1F762E086ED3E
:1008000091E00E9407038091E50180620E948703C6
:1008100084E08093E6018CE00E94870381E00E94DF
:1008200087038BE39FE10197F1F782E08093E70173
:1008300086E0DF91CF910C94870380620E9487034A
:100840008BE496E40197F1F78091E50180620E94C4
:10085000870383E592E00197F1F78091E5018062DB
:100860000E948703D0CFE091E901E23048F4E150E3
:10087000F0E0EA52FE4F9489890F80680C94870358
:10088000E1E0F6CF41E00E94340381E090E008957A
:10089000CF92DF92EF92FF9297FF18C06B017C011D
:1008A00041E06DE286ED91E00E94340366277727F0
:1008B000CB016C197D098E099F094AE00E94A302B1
:1008C0000196FF90EF90DF90CF9008954AE0FF905F
:1008D000EF90DF90CF900C94A3021F920F920FB66F
:1008E0000F9211242F933F934F935F936F937F93B6
:1008F0008F939F93AF93BF93EF93FF9389E391E01F
:100900000E940A01FF91EF91BF91AF919F918F914A
:100910007F916F915F914F913F912F910F900FBEFB
:100920000F901F9018951F920F920FB60F921124DF
:100930002F938F939F93EF93FF93E0914901F09151
:100940004A018081E0914F01F091500182FD1BC06E
:100950009081809152018F5F8F7320915301821794
:1009600041F0E0915201F0E0E75CFE4F958F8093FB
:100970005201FF91EF919F918F912F910F900FBE98
:100980000F901F9018958081F4CF1F920F920FB691
:100990000F9211242F933F938F939F93AF93BF9305
:1009A00080912F0190913001A0913101B0913201DD
:1009B00030912E0123E0230F2D3758F50196A11D0C
:1009C000B11D20932E0180932F0190933001A093AD
:1009D0003101B09332018091330190913401A091A3
:1009E0003501B09136010196A11DB11D80933301EF
:1009F00090933401A0933501B0933601BF91AF912C
:100A00009F918F913F912F910F900FBE0F901F904C
:100A1000189526E8230F0296A11DB11DD2CFE9E358
:100A2000F1E01382128288EE93E0A0E0B0E08483CC
:100A30009583A683B78386E091E09183808385ECDC
:100A400090E09587848784EC90E09787868780EC98
:100A500090E0918B808B81EC90E0938B828B82EC89
:100A600090E0958B848B86EC90E0978B868B118E33
:100A7000128E138E148EE6EDF1E01382128288E15D
:100A800091E0918380838CE084838FEF85838BE07A
:100A900086838AE0878389E0808788E0818787E092
:100AA00082871386148615861686178681E00C9435
:100AB0008D03789484B5826084BD84B5816084BDE3
:100AC00085B5826085BD85B5816085BD80916E00EC
:100AD000816080936E00109281008091810082601D
:100AE000809381008091810081608093810080915A
:100AF00080008160809380008091B1008460809349
:100B0000B1008091B00081608093B00080917A0044
:100B1000846080937A0080917A00826080937A006A
:100B200080917A00816080937A0080917A00806859
:100B300080937A001092C10082E00E948D034DE004
:100B400050E060E271E086ED91E00E948C00E0915F
:100B50004901F0914A0182E08083E0914501F091E2
:100B600046011082E0914701F09148018FEC8083AB
:100B700010925101E0914D01F0914E0186E0808389
:100B8000E0914B01F0914C01808180618083E09184
:100B90004B01F0914C01808188608083E0914B0192
:100BA000F0914C01808180688083E0914B01F0914D
:100BB0004C0180818F7D808362E082E00E9414027C
:100BC00000E010E00E94C201E0900001F0900101FD
:100BD0008E159F0579F0C0913701D09138010E94A0
:100BE000C201892B39F42196D0933801C093370183
:100BF0000E946A020E94C201E816F90631F00E94C2
:100C0000C201019711F40E946A020E94C2019093EE
:100C100001018093000180E00E943304609137015C
:100C200070913801072E000C880B990B0E94480424
:100C300086E00E94330460E070E0CB010E9448042B
:100C40008CE00E94330460E070E0CB010E94480415
:100C50000115110509F4B6CF0E94F600882309F4A6
:100C6000B1CF0E940000AECFA1E21A2EAA1BBB1B7F
:100C7000FD010DC0AA1FBB1FEE1FFF1FA217B30768
:100C8000E407F50720F0A21BB30BE40BF50B661F7E
:100C9000771F881F991F1A9469F760957095809542
:100CA00090959B01AC01BD01CF010895EE0FFF1F90
:100CB0000590F491E02D0994F894FFCF0100000015
:100CC00000002C018C00B9007901EA00C800DC00AA
:100CD0000000000042048C00A0029F0268656C6C5A
:0A0CE0006F2C20776F726C64210006
:107E0000112484B714BE81FFF0D085E080938100F7
:107E100082E08093C00088E18093C10086E0809377
:107E2000C20080E18093C4008EE0C9D0259A86E02C
:107E300020E33CEF91E0309385002093840096BBD3
:107E4000B09BFECF1D9AA8958150A9F7CC24DD24C4
:107E500088248394B5E0AB2EA1E19A2EF3E0BF2EE7
:107E6000A2D0813461F49FD0082FAFD0023811F036
:107E7000013811F484E001C083E08DD089C08234E0
:107E800011F484E103C0853419F485E0A6D080C0E4
:107E9000853579F488D0E82EFF2485D0082F10E0AE
:107EA000102F00270E291F29000F111F8ED06801E7
:107EB0006FC0863521F484E090D080E0DECF843638
:107EC00009F040C070D06FD0082F6DD080E0C81688
:107ED00080E7D80618F4F601B7BEE895C0E0D1E017
:107EE00062D089930C17E1F7F0E0CF16F0E7DF06D8
:107EF00018F0F601B7BEE89568D007B600FCFDCFD4
:107F0000A601A0E0B1E02C9130E011968C91119780
:107F100090E0982F8827822B932B1296FA010C0160
:107F200087BEE89511244E5F5F4FF1E0A038BF0790
:107F300051F7F601A7BEE89507B600FCFDCF97BE46
:107F4000E89526C08437B1F42ED02DD0F82E2BD052
:107F50003CD0F601EF2C8F010F5F1F4F84911BD097
:107F6000EA94F801C1F70894C11CD11CFA94CF0C13
:107F7000D11C0EC0853739F428D08EE10CD085E9AC
:107F80000AD08FE07ACF813511F488E018D01DD067
:107F900080E101D065CF982F8091C00085FFFCCF94
:107FA0009093C60008958091C00087FFFCCF809118
:107FB000C00084FD01C0A8958091C6000895E0E648
:107FC000F0E098E1908380830895EDDF803219F02E
:107FD00088E0F5DFFFCF84E1DECF1F93182FE3DFCA
:107FE0001150E9F7F2DF1F91089580E0E8DFEE27F6
:047FF000FF270994CA
:027FFE00040479
:00000001FF
